{
  "contractName": "Marketplace",
  "abi": [
    {
      "constant": true,
      "inputs": [
        {
          "name": "",
          "type": "address"
        }
      ],
      "name": "storeOwners",
      "outputs": [
        {
          "name": "",
          "type": "bool"
        }
      ],
      "payable": false,
      "stateMutability": "view",
      "type": "function",
      "signature": "0x057cc2a1"
    },
    {
      "constant": false,
      "inputs": [],
      "name": "unpause",
      "outputs": [],
      "payable": false,
      "stateMutability": "nonpayable",
      "type": "function",
      "signature": "0x3f4ba83a"
    },
    {
      "constant": true,
      "inputs": [
        {
          "name": "",
          "type": "address"
        }
      ],
      "name": "admins",
      "outputs": [
        {
          "name": "",
          "type": "bool"
        }
      ],
      "payable": false,
      "stateMutability": "view",
      "type": "function",
      "signature": "0x429b62e5"
    },
    {
      "constant": true,
      "inputs": [
        {
          "name": "account",
          "type": "address"
        }
      ],
      "name": "isPauser",
      "outputs": [
        {
          "name": "",
          "type": "bool"
        }
      ],
      "payable": false,
      "stateMutability": "view",
      "type": "function",
      "signature": "0x46fbf68e"
    },
    {
      "constant": true,
      "inputs": [
        {
          "name": "",
          "type": "address"
        },
        {
          "name": "",
          "type": "uint256"
        }
      ],
      "name": "stores",
      "outputs": [
        {
          "name": "",
          "type": "address"
        }
      ],
      "payable": false,
      "stateMutability": "view",
      "type": "function",
      "signature": "0x54121c74"
    },
    {
      "constant": true,
      "inputs": [],
      "name": "paused",
      "outputs": [
        {
          "name": "",
          "type": "bool"
        }
      ],
      "payable": false,
      "stateMutability": "view",
      "type": "function",
      "signature": "0x5c975abb"
    },
    {
      "constant": false,
      "inputs": [],
      "name": "renouncePauser",
      "outputs": [],
      "payable": false,
      "stateMutability": "nonpayable",
      "type": "function",
      "signature": "0x6ef8d66d"
    },
    {
      "constant": false,
      "inputs": [],
      "name": "renounceOwnership",
      "outputs": [],
      "payable": false,
      "stateMutability": "nonpayable",
      "type": "function",
      "signature": "0x715018a6"
    },
    {
      "constant": false,
      "inputs": [
        {
          "name": "account",
          "type": "address"
        }
      ],
      "name": "addPauser",
      "outputs": [],
      "payable": false,
      "stateMutability": "nonpayable",
      "type": "function",
      "signature": "0x82dc1ec4"
    },
    {
      "constant": false,
      "inputs": [],
      "name": "pause",
      "outputs": [],
      "payable": false,
      "stateMutability": "nonpayable",
      "type": "function",
      "signature": "0x8456cb59"
    },
    {
      "constant": true,
      "inputs": [],
      "name": "owner",
      "outputs": [
        {
          "name": "",
          "type": "address"
        }
      ],
      "payable": false,
      "stateMutability": "view",
      "type": "function",
      "signature": "0x8da5cb5b"
    },
    {
      "constant": true,
      "inputs": [],
      "name": "isOwner",
      "outputs": [
        {
          "name": "",
          "type": "bool"
        }
      ],
      "payable": false,
      "stateMutability": "view",
      "type": "function",
      "signature": "0x8f32d59b"
    },
    {
      "constant": false,
      "inputs": [
        {
          "name": "newOwner",
          "type": "address"
        }
      ],
      "name": "transferOwnership",
      "outputs": [],
      "payable": false,
      "stateMutability": "nonpayable",
      "type": "function",
      "signature": "0xf2fde38b"
    },
    {
      "inputs": [],
      "payable": false,
      "stateMutability": "nonpayable",
      "type": "constructor",
      "signature": "constructor"
    },
    {
      "anonymous": false,
      "inputs": [
        {
          "indexed": true,
          "name": "addr",
          "type": "address"
        }
      ],
      "name": "AddedAdmin",
      "type": "event",
      "signature": "0x7849194239ab1d31b991b5436d81370256505cf25eaafbcccbc66acd11896916"
    },
    {
      "anonymous": false,
      "inputs": [
        {
          "indexed": true,
          "name": "addr",
          "type": "address"
        }
      ],
      "name": "RemovedAdmin",
      "type": "event",
      "signature": "0x3137a7fedbfedb7895dfa5a6812a4566dae9ded68d00aeec13c6ed1fa84a1c80"
    },
    {
      "anonymous": false,
      "inputs": [
        {
          "indexed": true,
          "name": "addr",
          "type": "address"
        }
      ],
      "name": "AddedStoreOwner",
      "type": "event",
      "signature": "0xc6620235f05501774097a4948cc91c00fabc4b6f5845cf4656688305a27ccbf2"
    },
    {
      "anonymous": false,
      "inputs": [
        {
          "indexed": true,
          "name": "addr",
          "type": "address"
        }
      ],
      "name": "RemovedStoreOwner",
      "type": "event",
      "signature": "0xbfbb630e46683b50169e969e5da0beab37d63ec4c1abd0ace04afbc25c577047"
    },
    {
      "anonymous": false,
      "inputs": [
        {
          "indexed": true,
          "name": "owner",
          "type": "address"
        },
        {
          "indexed": false,
          "name": "name",
          "type": "string"
        }
      ],
      "name": "AddedStore",
      "type": "event",
      "signature": "0x7761bb46d1a54917d5387f6ce5f8c75028604bca7b9b166151c603ed8f03b027"
    },
    {
      "anonymous": false,
      "inputs": [
        {
          "indexed": true,
          "name": "addr",
          "type": "address"
        },
        {
          "indexed": true,
          "name": "owner",
          "type": "address"
        }
      ],
      "name": "DeletedStore",
      "type": "event",
      "signature": "0xb669e70036eafd4a4f809731db5037795f95aa1d1a98bd25158949ff137e4f33"
    },
    {
      "anonymous": false,
      "inputs": [
        {
          "indexed": false,
          "name": "account",
          "type": "address"
        }
      ],
      "name": "Paused",
      "type": "event",
      "signature": "0x62e78cea01bee320cd4e420270b5ea74000d11b0c9f74754ebdbfc544b05a258"
    },
    {
      "anonymous": false,
      "inputs": [
        {
          "indexed": false,
          "name": "account",
          "type": "address"
        }
      ],
      "name": "Unpaused",
      "type": "event",
      "signature": "0x5db9ee0a495bf2e6ff9c91a7834c1ba4fdd244a5e8aa4e537bd38aeae4b073aa"
    },
    {
      "anonymous": false,
      "inputs": [
        {
          "indexed": true,
          "name": "account",
          "type": "address"
        }
      ],
      "name": "PauserAdded",
      "type": "event",
      "signature": "0x6719d08c1888103bea251a4ed56406bd0c3e69723c8a1686e017e7bbe159b6f8"
    },
    {
      "anonymous": false,
      "inputs": [
        {
          "indexed": true,
          "name": "account",
          "type": "address"
        }
      ],
      "name": "PauserRemoved",
      "type": "event",
      "signature": "0xcd265ebaf09df2871cc7bd4133404a235ba12eff2041bb89d9c714a2621c7c7e"
    },
    {
      "anonymous": false,
      "inputs": [
        {
          "indexed": true,
          "name": "previousOwner",
          "type": "address"
        },
        {
          "indexed": true,
          "name": "newOwner",
          "type": "address"
        }
      ],
      "name": "OwnershipTransferred",
      "type": "event",
      "signature": "0x8be0079c531659141344cd1fd0a4f28419497f9722a3daafe3b4186f6b6457e0"
    },
    {
      "constant": false,
      "inputs": [
        {
          "name": "_addr",
          "type": "address"
        }
      ],
      "name": "addAdmin",
      "outputs": [],
      "payable": false,
      "stateMutability": "nonpayable",
      "type": "function",
      "signature": "0x70480275"
    },
    {
      "constant": false,
      "inputs": [
        {
          "name": "_addr",
          "type": "address"
        }
      ],
      "name": "removeAdmin",
      "outputs": [],
      "payable": false,
      "stateMutability": "nonpayable",
      "type": "function",
      "signature": "0x1785f53c"
    },
    {
      "constant": false,
      "inputs": [
        {
          "name": "_addr",
          "type": "address"
        }
      ],
      "name": "addStoreOwner",
      "outputs": [],
      "payable": false,
      "stateMutability": "nonpayable",
      "type": "function",
      "signature": "0x9adeb5f1"
    },
    {
      "constant": false,
      "inputs": [
        {
          "name": "_addr",
          "type": "address"
        }
      ],
      "name": "removeStoreOwner",
      "outputs": [],
      "payable": false,
      "stateMutability": "nonpayable",
      "type": "function",
      "signature": "0x6174fdd1"
    },
    {
      "constant": true,
      "inputs": [
        {
          "name": "_addr",
          "type": "address"
        }
      ],
      "name": "getStores",
      "outputs": [
        {
          "name": "",
          "type": "address[]"
        }
      ],
      "payable": false,
      "stateMutability": "view",
      "type": "function",
      "signature": "0x75dae8a6"
    },
    {
      "constant": true,
      "inputs": [
        {
          "name": "_store",
          "type": "address"
        }
      ],
      "name": "getStoreValues",
      "outputs": [
        {
          "name": "",
          "type": "address"
        },
        {
          "name": "",
          "type": "address"
        },
        {
          "name": "",
          "type": "string"
        },
        {
          "name": "",
          "type": "uint256"
        }
      ],
      "payable": false,
      "stateMutability": "view",
      "type": "function",
      "signature": "0xb2dc3517"
    },
    {
      "constant": false,
      "inputs": [
        {
          "name": "_name",
          "type": "string"
        }
      ],
      "name": "addStore",
      "outputs": [
        {
          "name": "storeAddress",
          "type": "address"
        }
      ],
      "payable": false,
      "stateMutability": "nonpayable",
      "type": "function",
      "signature": "0x662feffc"
    },
    {
      "constant": false,
      "inputs": [
        {
          "name": "_addr",
          "type": "address"
        }
      ],
      "name": "deleteStore",
      "outputs": [],
      "payable": false,
      "stateMutability": "nonpayable",
      "type": "function",
      "signature": "0xfc5794b8"
    }
  ],
  "bytecode": "0x60806040523480156200001157600080fd5b5060008054600160a060020a0319163317808255604051600160a060020a0391909116919060008051602062003f78833981519152908290a36200005e336401000000006200009c810204565b6002805460ff191690556200007c33640100000000620000ee810204565b336000908152600360205260409020805460ff19166001179055620003e6565b620000b760018264010000000062001d676200018682021704565b604051600160a060020a038216907f6719d08c1888103bea251a4ed56406bd0c3e69723c8a1686e017e7bbe159b6f890600090a250565b620001016401000000006200022d810204565b15156200016f57604080517f08c379a000000000000000000000000000000000000000000000000000000000815260206004820181905260248201527f4f776e61626c653a2063616c6c6572206973206e6f7420746865206f776e6572604482015290519081900360640190fd5b62000183816401000000006200023e810204565b50565b6200019b828264010000000062000326810204565b156200020857604080517f08c379a000000000000000000000000000000000000000000000000000000000815260206004820152601f60248201527f526f6c65733a206163636f756e7420616c72656164792068617320726f6c6500604482015290519081900360640190fd5b600160a060020a0316600090815260209190915260409020805460ff19166001179055565b600054600160a060020a0316331490565b600160a060020a0381161515620002dc57604080517f08c379a000000000000000000000000000000000000000000000000000000000815260206004820152602660248201527f4f776e61626c653a206e6577206f776e657220697320746865207a65726f206160448201527f6464726573730000000000000000000000000000000000000000000000000000606482015290519081900360840190fd5b60008054604051600160a060020a038085169392169160008051602062003f7883398151915291a360008054600160a060020a031916600160a060020a0392909216919091179055565b6000600160a060020a0382161515620003c657604080517f08c379a000000000000000000000000000000000000000000000000000000000815260206004820152602260248201527f526f6c65733a206163636f756e7420697320746865207a65726f20616464726560448201527f7373000000000000000000000000000000000000000000000000000000000000606482015290519081900360840190fd5b50600160a060020a03166000908152602091909152604090205460ff1690565b613b8280620003f66000396000f3fe608060405260043610620001325763ffffffff7c0100000000000000000000000000000000000000000000000000000000600035041663057cc2a18114620001375780631785f53c14620001825780633f4ba83a14620001bb578063429b62e514620001d357806346fbf68e146200020a57806354121c7414620002415780635c975abb146200029a5780636174fdd114620002b2578063662feffc14620002e95780636ef8d66d14620003a35780637048027514620003bb578063715018a614620003f257806375dae8a6146200040a57806382dc1ec414620004935780638456cb5914620004ca5780638da5cb5b14620004e25780638f32d59b14620004fa5780639adeb5f11462000512578063b2dc35171462000549578063f2fde38b1462000634578063fc5794b8146200066b575b600080fd5b3480156200014457600080fd5b506200016e600480360360208110156200015d57600080fd5b5035600160a060020a0316620006a2565b604080519115158252519081900360200190f35b3480156200018f57600080fd5b50620001b960048036036020811015620001a857600080fd5b5035600160a060020a0316620006b7565b005b348015620001c857600080fd5b50620001b96200086f565b348015620001e057600080fd5b506200016e60048036036020811015620001f957600080fd5b5035600160a060020a03166200099f565b3480156200021757600080fd5b506200016e600480360360208110156200023057600080fd5b5035600160a060020a0316620009b4565b3480156200024e57600080fd5b506200027e600480360360408110156200026757600080fd5b50600160a060020a038135169060200135620009cf565b60408051600160a060020a039092168252519081900360200190f35b348015620002a757600080fd5b506200016e62000a07565b348015620002bf57600080fd5b50620001b960048036036020811015620002d857600080fd5b5035600160a060020a031662000a11565b348015620002f657600080fd5b506200027e600480360360208110156200030f57600080fd5b8101906020810181356401000000008111156200032b57600080fd5b8201836020820111156200033e57600080fd5b803590602001918460018302840111640100000000831117156200036157600080fd5b91908080601f01602080910402602001604051908101604052809392919081815260200183838082843760009201919091525092955062000b61945050505050565b348015620003b057600080fd5b50620001b962000f0f565b348015620003c857600080fd5b50620001b960048036036020811015620003e157600080fd5b5035600160a060020a031662000f1c565b348015620003ff57600080fd5b50620001b96200106f565b3480156200041757600080fd5b5062000441600480360360208110156200043057600080fd5b5035600160a060020a03166200112d565b60408051602080825283518183015283519192839290830191858101910280838360005b838110156200047f57818101518382015260200162000465565b505050509050019250505060405180910390f35b348015620004a057600080fd5b50620001b960048036036020811015620004b957600080fd5b5035600160a060020a0316620011a5565b348015620004d757600080fd5b50620001b962001241565b348015620004ef57600080fd5b506200027e62001373565b3480156200050757600080fd5b506200016e62001382565b3480156200051f57600080fd5b50620001b9600480360360208110156200053857600080fd5b5035600160a060020a031662001393565b3480156200055657600080fd5b5062000580600480360360208110156200056f57600080fd5b5035600160a060020a0316620014e6565b6040518085600160a060020a0316600160a060020a0316815260200184600160a060020a0316600160a060020a0316815260200180602001838152602001828103825284818151815260200191508051906020019080838360005b83811015620005f5578181015183820152602001620005db565b50505050905090810190601f168015620006235780820380516001836020036101000a031916815260200191505b509550505050505060405180910390f35b3480156200064157600080fd5b50620001b9600480360360208110156200065a57600080fd5b5035600160a060020a0316620015f3565b3480156200067857600080fd5b50620001b9600480360360208110156200069157600080fd5b5035600160a060020a031662001665565b60046020526000908152604090205460ff1681565b620006c162001382565b15156200071e576040805160008051602062003b37833981519152815260206004820181905260248201527f4f776e61626c653a2063616c6c6572206973206e6f7420746865206f776e6572604482015290519081900360640190fd5b60025460ff161562000780576040805160008051602062003b37833981519152815260206004820152601060248201527f5061757361626c653a2070617573656400000000000000000000000000000000604482015290519081900360640190fd5b6200078a62001373565b600160a060020a03828116911614156200081a576040805160008051602062003b37833981519152815260206004820152602f60248201527f596f7520646f206e6f742068617665207065726d697373696f6e7320746f207260448201527f656d6f766520616e206f776e65722e0000000000000000000000000000000000606482015290519081900360840190fd5b604051600160a060020a038216907f3137a7fedbfedb7895dfa5a6812a4566dae9ded68d00aeec13c6ed1fa84a1c8090600090a2600160a060020a03166000908152600360205260409020805460ff19169055565b6200087a33620009b4565b1515620008fd576040805160008051602062003b37833981519152815260206004820152603060248201527f506175736572526f6c653a2063616c6c657220646f6573206e6f74206861766560448201527f207468652050617573657220726f6c6500000000000000000000000000000000606482015290519081900360840190fd5b60025460ff16151562000960576040805160008051602062003b37833981519152815260206004820152601460248201527f5061757361626c653a206e6f7420706175736564000000000000000000000000604482015290519081900360640190fd5b6002805460ff191690556040805133815290517f5db9ee0a495bf2e6ff9c91a7834c1ba4fdd244a5e8aa4e537bd38aeae4b073aa9181900360200190a1565b60036020526000908152604090205460ff1681565b6000620009c960018363ffffffff62001a7e16565b92915050565b600560205281600052604060002081815481101515620009eb57fe5b600091825260209091200154600160a060020a03169150829050565b60025460ff165b90565b3360009081526003602052604090205460ff16151560011462000aaa576040805160008051602062003b37833981519152815260206004820152603260248201527f596f7520646f206e6f742068617665207065726d697373696f6e20746f20706560448201527f72666f726d207468697320616374696f6e2e0000000000000000000000000000606482015290519081900360840190fd5b60025460ff161562000b0c576040805160008051602062003b37833981519152815260206004820152601060248201527f5061757361626c653a2070617573656400000000000000000000000000000000604482015290519081900360640190fd5b604051600160a060020a038216907fbfbb630e46683b50169e969e5da0beab37d63ec4c1abd0ace04afbc25c57704790600090a2600160a060020a03166000908152600460205260409020805460ff19169055565b3360009081526004602052604081205460ff16151560011462000bf9576040805160008051602062003b378339815191528152602060048201526024808201527f596f7520617265206e6f7420746865206f776e6572206f66207468697320737460448201527f6f72652e00000000000000000000000000000000000000000000000000000000606482015290519081900360840190fd5b60025460ff161562000c5b576040805160008051602062003b37833981519152815260206004820152601060248201527f5061757361626c653a2070617573656400000000000000000000000000000000604482015290519081900360640190fd5b604080516020808252845181830152845133937f7761bb46d1a54917d5387f6ce5f8c75028604bca7b9b166151c603ed8f03b0279387939092839283019185019080838360005b8381101562000cbc57818101518382015260200162000ca2565b50505050905090810190601f16801562000cea5780820380516001836020036101000a031916815260200191505b509250505060405180910390a2600033308462000d0662001df4565b8084600160a060020a0316600160a060020a0316815260200183600160a060020a0316600160a060020a0316815260200180602001828103825283818151815260200191508051906020019080838360005b8381101562000d7257818101518382015260200162000d58565b50505050905090810190601f16801562000da05780820380516001836020036101000a031916815260200191505b50945050505050604051809103906000f08015801562000dc4573d6000803e3d6000fd5b50336000908152600560209081526040918290208054835181840281018401909452808452939450606093909183018282801562000e2c57602002820191906000526020600020905b8154600160a060020a0316815260019091019060200180831162000e0d575b505050505090506060815160010160405190808252806020026020018201604052801562000e64578160200160208202803883390190505b50905060005b825181101562000ebc57828181518110151562000e8357fe5b90602001906020020151828281518110151562000e9c57fe5b600160a060020a0390921660209283029091019091015260010162000e6a565b508281600183510381518110151562000ed157fe5b600160a060020a0390921660209283029091018201523360009081526005825260409020825162000f059284019062001e05565b5091949350505050565b62000f1a3362001b2d565b565b3360009081526003602052604090205460ff16151560011462000fb5576040805160008051602062003b37833981519152815260206004820152603260248201527f596f7520646f206e6f742068617665207065726d697373696f6e20746f20706560448201527f72666f726d207468697320616374696f6e2e0000000000000000000000000000606482015290519081900360840190fd5b60025460ff161562001017576040805160008051602062003b37833981519152815260206004820152601060248201527f5061757361626c653a2070617573656400000000000000000000000000000000604482015290519081900360640190fd5b604051600160a060020a038216907f7849194239ab1d31b991b5436d81370256505cf25eaafbcccbc66acd1189691690600090a2600160a060020a03166000908152600360205260409020805460ff19166001179055565b6200107962001382565b1515620010d6576040805160008051602062003b37833981519152815260206004820181905260248201527f4f776e61626c653a2063616c6c6572206973206e6f7420746865206f776e6572604482015290519081900360640190fd5b60008054604051600160a060020a03909116907f8be0079c531659141344cd1fd0a4f28419497f9722a3daafe3b4186f6b6457e0908390a36000805473ffffffffffffffffffffffffffffffffffffffff19169055565b600160a060020a0381166000908152600560209081526040918290208054835181840281018401909452808452606093928301828280156200119957602002820191906000526020600020905b8154600160a060020a031681526001909101906020018083116200117a575b50505050509050919050565b620011b033620009b4565b151562001233576040805160008051602062003b37833981519152815260206004820152603060248201527f506175736572526f6c653a2063616c6c657220646f6573206e6f74206861766560448201527f207468652050617573657220726f6c6500000000000000000000000000000000606482015290519081900360840190fd5b6200123e8162001b77565b50565b6200124c33620009b4565b1515620012cf576040805160008051602062003b37833981519152815260206004820152603060248201527f506175736572526f6c653a2063616c6c657220646f6573206e6f74206861766560448201527f207468652050617573657220726f6c6500000000000000000000000000000000606482015290519081900360840190fd5b60025460ff161562001331576040805160008051602062003b37833981519152815260206004820152601060248201527f5061757361626c653a2070617573656400000000000000000000000000000000604482015290519081900360640190fd5b6002805460ff191660011790556040805133815290517f62e78cea01bee320cd4e420270b5ea74000d11b0c9f74754ebdbfc544b05a2589181900360200190a1565b600054600160a060020a031690565b600054600160a060020a0316331490565b3360009081526003602052604090205460ff1615156001146200142c576040805160008051602062003b37833981519152815260206004820152603260248201527f596f7520646f206e6f742068617665207065726d697373696f6e20746f20706560448201527f72666f726d207468697320616374696f6e2e0000000000000000000000000000606482015290519081900360840190fd5b60025460ff16156200148e576040805160008051602062003b37833981519152815260206004820152601060248201527f5061757361626c653a2070617573656400000000000000000000000000000000604482015290519081900360640190fd5b604051600160a060020a038216907fc6620235f05501774097a4948cc91c00fabc4b6f5845cf4656688305a27ccbf290600090a2600160a060020a03166000908152600460205260409020805460ff19166001179055565b6000806060600084600160a060020a03166319eb4a906040518163ffffffff167c010000000000000000000000000000000000000000000000000000000002815260040160006040518083038186803b1580156200154357600080fd5b505afa15801562001558573d6000803e3d6000fd5b505050506040513d6000823e601f3d908101601f1916820160405260808110156200158257600080fd5b8151602083015160408401805192949193820192640100000000811115620015a957600080fd5b82016020810184811115620015bd57600080fd5b8151640100000000811182820187101715620015d857600080fd5b505060209190910151949a9399509750929550909350505050565b620015fd62001382565b15156200165a576040805160008051602062003b37833981519152815260206004820181905260248201527f4f776e61626c653a2063616c6c6572206973206e6f7420746865206f776e6572604482015290519081900360640190fd5b6200123e8162001bc1565b3360009081526005602090815260408083208054825181850281018501909352808352606093830182828015620016c657602002820191906000526020600020905b8154600160a060020a03168152600190910190602001808311620016a7575b50939450600093505050505b8151811015620017985781513390839083908110620016ed57fe5b90602001906020020151600160a060020a0316638da5cb5b6040518163ffffffff167c010000000000000000000000000000000000000000000000000000000002815260040160206040518083038186803b1580156200174c57600080fd5b505afa15801562001761573d6000803e3d6000fd5b505050506040513d60208110156200177857600080fd5b5051600160a060020a031614156200178f57600192505b600101620016d2565b508115156200181c576040805160008051602062003b378339815191528152602060048201526024808201527f596f7520617265206e6f7420746865206f776e6572206f66207468697320737460448201527f6f72652e00000000000000000000000000000000000000000000000000000000606482015290519081900360840190fd5b60025460ff16156200187e576040805160008051602062003b37833981519152815260206004820152601060248201527f5061757361626c653a2070617573656400000000000000000000000000000000604482015290519081900360640190fd5b6040513390600160a060020a038516907fb669e70036eafd4a4f809731db5037795f95aa1d1a98bd25158949ff137e4f3390600090a3336000908152600560209081526040918290208054835181840281018401909452808452606093928301828280156200191757602002820191906000526020600020905b8154600160a060020a03168152600190910190602001808311620018f8575b50505050509050606060018251036040519080825280602002602001820160405280156200194f578160200160208202803883390190505b5090506000805b8351811015620019e15786600160a060020a031684828151811015156200197957fe5b60209081029091010151600160a060020a031614620019d8578381815181101515620019a157fe5b906020019060200201518383815181101515620019ba57fe5b600160a060020a039092166020928302909101909101526001909101905b60010162001956565b50336000908152600560209081526040909120835162001a049285019062001e05565b5085600160a060020a031663f86fe8656040518163ffffffff167c0100000000000000000000000000000000000000000000000000000000028152600401600060405180830381600087803b15801562001a5d57600080fd5b505af115801562001a72573d6000803e3d6000fd5b50505050505050505050565b6000600160a060020a038216151562001b0d576040805160008051602062003b37833981519152815260206004820152602260248201527f526f6c65733a206163636f756e7420697320746865207a65726f20616464726560448201527f7373000000000000000000000000000000000000000000000000000000000000606482015290519081900360840190fd5b50600160a060020a03166000908152602091909152604090205460ff1690565b62001b4060018263ffffffff62001cb616565b604051600160a060020a038216907fcd265ebaf09df2871cc7bd4133404a235ba12eff2041bb89d9c714a2621c7c7e90600090a250565b62001b8a60018263ffffffff62001d6716565b604051600160a060020a038216907f6719d08c1888103bea251a4ed56406bd0c3e69723c8a1686e017e7bbe159b6f890600090a250565b600160a060020a038116151562001c4e576040805160008051602062003b37833981519152815260206004820152602660248201527f4f776e61626c653a206e6577206f776e657220697320746865207a65726f206160448201527f6464726573730000000000000000000000000000000000000000000000000000606482015290519081900360840190fd5b60008054604051600160a060020a03808516939216917f8be0079c531659141344cd1fd0a4f28419497f9722a3daafe3b4186f6b6457e091a36000805473ffffffffffffffffffffffffffffffffffffffff1916600160a060020a0392909216919091179055565b62001cc2828262001a7e565b151562001d45576040805160008051602062003b37833981519152815260206004820152602160248201527f526f6c65733a206163636f756e7420646f6573206e6f74206861766520726f6c60448201527f6500000000000000000000000000000000000000000000000000000000000000606482015290519081900360840190fd5b600160a060020a0316600090815260209190915260409020805460ff19169055565b62001d73828262001a7e565b1562001dcf576040805160008051602062003b37833981519152815260206004820152601f60248201527f526f6c65733a206163636f756e7420616c72656164792068617320726f6c6500604482015290519081900360640190fd5b600160a060020a0316600090815260209190915260409020805460ff19166001179055565b604051611c868062001eb183390190565b82805482825590600052602060002090810192821562001e6a579160200282015b8281111562001e6a578251825473ffffffffffffffffffffffffffffffffffffffff1916600160a060020a0390911617825560209092019160019091019062001e26565b5062001e7892915062001e7c565b5090565b62000a0e91905b8082111562001e7857805473ffffffffffffffffffffffffffffffffffffffff1916815560010162001e8356fe60806040523480156200001157600080fd5b5060405162001c8638038062001c86833981018060405260608110156200003757600080fd5b81516020830151604084018051929491938201926401000000008111156200005e57600080fd5b820160208101848111156200007257600080fd5b81516401000000008111828201871017156200008d57600080fd5b505060008054600160a060020a0319163317808255604051929550600160a060020a03169350915060008051602062001c66833981519152908290a3620000dd836401000000006200011d810204565b60018054600160a060020a031916600160a060020a03841617905580516200010d906002906020840190620002af565b5050600060045550620003519050565b62000130640100000000620001b5810204565b15156200019e57604080517f08c379a000000000000000000000000000000000000000000000000000000000815260206004820181905260248201527f4f776e61626c653a2063616c6c6572206973206e6f7420746865206f776e6572604482015290519081900360640190fd5b620001b281640100000000620001c7810204565b50565b600054600160a060020a031633145b90565b600160a060020a03811615156200026557604080517f08c379a000000000000000000000000000000000000000000000000000000000815260206004820152602660248201527f4f776e61626c653a206e6577206f776e657220697320746865207a65726f206160448201527f6464726573730000000000000000000000000000000000000000000000000000606482015290519081900360840190fd5b60008054604051600160a060020a038085169392169160008051602062001c6683398151915291a360008054600160a060020a031916600160a060020a0392909216919091179055565b828054600181600116156101000203166002900490600052602060002090601f016020900481019282601f10620002f257805160ff191683800117855562000322565b8280016001018555821562000322579182015b828111156200032257825182559160200191906001019062000305565b506200033092915062000334565b5090565b620001c491905b808211156200033057600081556001016200033b565b61190580620003616000396000f3fe6080604052600436106100cf5763ffffffff7c010000000000000000000000000000000000000000000000000000000060003504166305930f7c81146100d457806306fdde03146100fb578063155dd5ee1461018557806319eb4a90146101b157806371329171146102ab578063715018a6146102d55780638da5cb5b146102ea5780638f32d59b146103285780639979c00914610351578063b3de019c14610374578063bfb231d2146103a4578063d5e6c33314610466578063f2fde38b1461051e578063f86fe8651461055e575b600080fd5b3480156100e057600080fd5b506100e9610573565b60408051918252519081900360200190f35b34801561010757600080fd5b50610110610579565b6040805160208082528351818301528351919283929083019185019080838360005b8381101561014a578181015183820152602001610132565b50505050905090810190601f1680156101775780820380516001836020036101000a031916815260200191505b509250505060405180910390f35b34801561019157600080fd5b506101af600480360360208110156101a857600080fd5b5035610604565b005b3480156101bd57600080fd5b506101c6610791565b604051808573ffffffffffffffffffffffffffffffffffffffff1673ffffffffffffffffffffffffffffffffffffffff1681526020018473ffffffffffffffffffffffffffffffffffffffff1673ffffffffffffffffffffffffffffffffffffffff16815260200180602001838152602001828103825284818151815260200191508051906020019080838360005b8381101561026d578181015183820152602001610255565b50505050905090810190601f16801561029a5780820380516001836020036101000a031916815260200191505b509550505050505060405180910390f35b3480156102b757600080fd5b506101af600480360360208110156102ce57600080fd5b503561085e565b3480156102e157600080fd5b506101af610a99565b3480156102f657600080fd5b506102ff610b60565b6040805173ffffffffffffffffffffffffffffffffffffffff9092168252519081900360200190f35b34801561033457600080fd5b5061033d610b7d565b604080519115158252519081900360200190f35b6101af6004803603604081101561036757600080fd5b5080359060200135610b9b565b34801561038057600080fd5b506101af6004803603604081101561039757600080fd5b5080359060200135610e3e565b3480156103b057600080fd5b506103ce600480360360208110156103c757600080fd5b5035611074565b604051808681526020018060200185815260200184815260200183151515158152602001828103825286818151815260200191508051906020019080838360005b8381101561042757818101518382015260200161040f565b50505050905090810190601f1680156104545780820380516001836020036101000a031916815260200191505b50965050505050505060405180910390f35b34801561047257600080fd5b506101af6004803603606081101561048957600080fd5b8101906020810181356401000000008111156104a457600080fd5b8201836020820111156104b657600080fd5b803590602001918460018302840111640100000000831117156104d857600080fd5b91908080601f0160208091040260200160405190810160405280939291908181526020018383808284376000920191909152509295505082359350505060200135611132565b34801561052a57600080fd5b506101af6004803603602081101561054157600080fd5b503573ffffffffffffffffffffffffffffffffffffffff166113d7565b34801561056a57600080fd5b506101af611446565b60045481565b6002805460408051602060018416156101000260001901909316849004601f810184900484028201840190925281815292918301828280156105fc5780601f106105d1576101008083540402835291602001916105fc565b820191906000526020600020905b8154815290600101906020018083116105df57829003601f168201915b505050505081565b61060c610b7d565b151561066757604080516000805160206118ba833981519152815260206004820181905260248201527f4f776e61626c653a2063616c6c6572206973206e6f7420746865206f776e6572604482015290519081900360640190fd5b30318111156106eb57604080516000805160206118ba833981519152815260206004820152602560248201527f596f7520646f6e2774206861766520796f75206861766520656e6f756768206560448201527f746865722e000000000000000000000000000000000000000000000000000000606482015290519081900360840190fd5b6106f3610b60565b73ffffffffffffffffffffffffffffffffffffffff167f4e047827ced31ce8022e0dd0c4129d64c12712fc49afc2d02facf3b2c4ae7f2d826040518082815260200191505060405180910390a2610748610b60565b73ffffffffffffffffffffffffffffffffffffffff166108fc829081150290604051600060405180830381858888f1935050505015801561078d573d6000803e3d6000fd5b5050565b600080606060006107a0610b60565b6001805460045460028054604080516020601f60001998851615610100029890980190931684900496870183900483028101830190915285815273ffffffffffffffffffffffffffffffffffffffff9094169491939184918301828280156108495780601f1061081e57610100808354040283529160200191610849565b820191906000526020600020905b81548152906001019060200180831161082c57829003601f168201915b50505050509150935093509350935090919293565b600081815260036020526040902060040154819060ff1615156001146108d357604080516000805160206118ba833981519152815260206004820152601160248201527f4e6f6e6578697374656e74206974656d2e000000000000000000000000000000604482015290519081900360640190fd5b6108db610b7d565b151561093657604080516000805160206118ba833981519152815260206004820181905260248201527f4f776e61626c653a2063616c6c6572206973206e6f7420746865206f776e6572604482015290519081900360640190fd5b600154604080517f5c975abb000000000000000000000000000000000000000000000000000000008152905173ffffffffffffffffffffffffffffffffffffffff909216916000918391635c975abb91600480820192602092909190829003018186803b1580156109a657600080fd5b505afa1580156109ba573d6000803e3d6000fd5b505050506040513d60208110156109d057600080fd5b505190508015610a2f57604080516000805160206118ba833981519152815260206004820152601960248201527f546865204d61726b6574706c6163652069732070617573656400000000000000604482015290519081900360640190fd5b60405184907f1200711b6f8b57257f9fe3aa66400323f3fdab4a308661e85a1cddb32aebfd6390600090a2600084815260036020526040812081815590610a7960018301826117dd565b506000600282018190556003820155600401805460ff1916905550505050565b610aa1610b7d565b1515610afc57604080516000805160206118ba833981519152815260206004820181905260248201527f4f776e61626c653a2063616c6c6572206973206e6f7420746865206f776e6572604482015290519081900360640190fd5b6000805460405173ffffffffffffffffffffffffffffffffffffffff909116907f8be0079c531659141344cd1fd0a4f28419497f9722a3daafe3b4186f6b6457e0908390a36000805473ffffffffffffffffffffffffffffffffffffffff19169055565b60005473ffffffffffffffffffffffffffffffffffffffff165b90565b60005473ffffffffffffffffffffffffffffffffffffffff16331490565b600082815260036020526040902060040154829060ff161515600114610c1057604080516000805160206118ba833981519152815260206004820152601160248201527f4e6f6e6578697374656e74206974656d2e000000000000000000000000000000604482015290519081900360640190fd5b600154604080517f5c975abb000000000000000000000000000000000000000000000000000000008152905173ffffffffffffffffffffffffffffffffffffffff909216916000918391635c975abb91600480820192602092909190829003018186803b158015610c8057600080fd5b505afa158015610c94573d6000803e3d6000fd5b505050506040513d6020811015610caa57600080fd5b505190508015610d0957604080516000805160206118ba833981519152815260206004820152601960248201527f546865204d61726b6574706c6163652069732070617573656400000000000000604482015290519081900360640190fd5b600085815260036020526040902060020154341015610d7757604080516000805160206118ba833981519152815260206004820152601160248201527f4e6f7420656e6f7567682065746865722e000000000000000000000000000000604482015290519081900360640190fd5b60008581526003602081905260409091200154841115610de657604080516000805160206118ba833981519152815260206004820152601a60248201527f576520646f6e27742068617665207468617420616d6f756e742e000000000000604482015290519081900360640190fd5b604080518581529051339187917ff7543ed05d8b08b4a46891affceaf63e67dcebf0fd6975f653857b6cd26a9f299181900360200190a350505060009182526003602081905260409092209091018054919091039055565b600082815260036020526040902060040154829060ff161515600114610eb357604080516000805160206118ba833981519152815260206004820152601160248201527f4e6f6e6578697374656e74206974656d2e000000000000000000000000000000604482015290519081900360640190fd5b610ebb610b7d565b1515610f1657604080516000805160206118ba833981519152815260206004820181905260248201527f4f776e61626c653a2063616c6c6572206973206e6f7420746865206f776e6572604482015290519081900360640190fd5b600154604080517f5c975abb000000000000000000000000000000000000000000000000000000008152905173ffffffffffffffffffffffffffffffffffffffff909216916000918391635c975abb91600480820192602092909190829003018186803b158015610f8657600080fd5b505afa158015610f9a573d6000803e3d6000fd5b505050506040513d6020811015610fb057600080fd5b50519050801561100f57604080516000805160206118ba833981519152815260206004820152601960248201527f546865204d61726b6574706c6163652069732070617573656400000000000000604482015290519081900360640190fd5b600085815260036020908152604091829020600201548251908152908101869052815187927fe7c8040b7e70fdc86a04cd924e84862b2a7d37a5adb67e951bf0defb90c74d00928290030190a250505060009182526003602052604090912060020155565b6003602090815260009182526040918290208054600180830180548651600293821615610100026000190190911692909204601f8101869004860283018601909652858252919492939092908301828280156111115780601f106110e657610100808354040283529160200191611111565b820191906000526020600020905b8154815290600101906020018083116110f457829003601f168201915b50505050600283015460038401546004909401549293909290915060ff1685565b61113a610b7d565b151561119557604080516000805160206118ba833981519152815260206004820181905260248201527f4f776e61626c653a2063616c6c6572206973206e6f7420746865206f776e6572604482015290519081900360640190fd5b600154604080517f5c975abb000000000000000000000000000000000000000000000000000000008152905173ffffffffffffffffffffffffffffffffffffffff909216916000918391635c975abb91600480820192602092909190829003018186803b15801561120557600080fd5b505afa158015611219573d6000803e3d6000fd5b505050506040513d602081101561122f57600080fd5b50519050801561128e57604080516000805160206118ba833981519152815260206004820152601960248201527f546865204d61726b6574706c6163652069732070617573656400000000000000604482015290519081900360640190fd5b6004547ffae8ae6da631b84dfad91e43b4bdb86a5dc01e169d10bfc9c9152d5ecad3748d8686866040518080602001848152602001838152602001828103825285818151815260200191508051906020019080838360005b838110156112fe5781810151838201526020016112e6565b50505050905090810190601f16801561132b5780820380516001836020036101000a031916815260200191505b5094505050505060405180910390a26040805160a08101825260045480825260208083018981528385018990526060840188905260016080850181905260009384526003835294909220835181559151805193949293611392938501929190910190611821565b5060408201516002820155606082015160038201556080909101516004918201805460ff1916911515919091179055546113cd90600161165a565b6004555050505050565b6113df610b7d565b151561143a57604080516000805160206118ba833981519152815260206004820181905260248201527f4f776e61626c653a2063616c6c6572206973206e6f7420746865206f776e6572604482015290519081900360640190fd5b611443816116c3565b50565b600154604080517f5c975abb000000000000000000000000000000000000000000000000000000008152905173ffffffffffffffffffffffffffffffffffffffff909216916000918391635c975abb91600480820192602092909190829003018186803b1580156114b657600080fd5b505afa1580156114ca573d6000803e3d6000fd5b505050506040513d60208110156114e057600080fd5b50519050801561153f57604080516000805160206118ba833981519152815260206004820152601960248201527f546865204d61726b6574706c6163652069732070617573656400000000000000604482015290519081900360640190fd5b60015473ffffffffffffffffffffffffffffffffffffffff1633146115d957604080516000805160206118ba833981519152815260206004820152603260248201527f596f7520646f206e6f742068617665207065726d697373696f6e20746f20706560448201527f72666f726d207468697320616374696f6e2e0000000000000000000000000000606482015290519081900360840190fd5b6115e1610b60565b73ffffffffffffffffffffffffffffffffffffffff163073ffffffffffffffffffffffffffffffffffffffff167fb669e70036eafd4a4f809731db5037795f95aa1d1a98bd25158949ff137e4f3360405160405180910390a3611642610b60565b73ffffffffffffffffffffffffffffffffffffffff16ff5b6000828201838110156116bc57604080516000805160206118ba833981519152815260206004820152601b60248201527f536166654d6174683a206164646974696f6e206f766572666c6f770000000000604482015290519081900360640190fd5b9392505050565b73ffffffffffffffffffffffffffffffffffffffff8116151561175b57604080516000805160206118ba833981519152815260206004820152602660248201527f4f776e61626c653a206e6577206f776e657220697320746865207a65726f206160448201527f6464726573730000000000000000000000000000000000000000000000000000606482015290519081900360840190fd5b6000805460405173ffffffffffffffffffffffffffffffffffffffff808516939216917f8be0079c531659141344cd1fd0a4f28419497f9722a3daafe3b4186f6b6457e091a36000805473ffffffffffffffffffffffffffffffffffffffff191673ffffffffffffffffffffffffffffffffffffffff92909216919091179055565b50805460018160011615610100020316600290046000825580601f106118035750611443565b601f016020900490600052602060002090810190611443919061189f565b828054600181600116156101000203166002900490600052602060002090601f016020900481019282601f1061186257805160ff191683800117855561188f565b8280016001018555821561188f579182015b8281111561188f578251825591602001919060010190611874565b5061189b92915061189f565b5090565b610b7a91905b8082111561189b57600081556001016118a556fe08c379a000000000000000000000000000000000000000000000000000000000a165627a7a72305820e5caa129ec1442a2793ff79cce566dd777c9bebe712f46a5d20001dece5224d300298be0079c531659141344cd1fd0a4f28419497f9722a3daafe3b4186f6b6457e008c379a000000000000000000000000000000000000000000000000000000000a165627a7a7230582074c9298f912dd5778409db64e159db2a81883e225f663af5c754b4ab2a3eb91300298be0079c531659141344cd1fd0a4f28419497f9722a3daafe3b4186f6b6457e0",
  "source": "pragma solidity ^0.5.0;\n\nimport \"@openzeppelin/contracts/ownership/Ownable.sol\";\nimport \"@openzeppelin/contracts/lifecycle/Pausable.sol\";\n\nimport \"./Store.sol\";\n\n/**\n * @title Marketplace\n * @dev The Marketplace contract determines which addresses are the admins and the store owners.\n * It is also allows store owners to open a store using an external function from the Store contract.\n * Using a store owners address it can determine the stores that the store owner is in charge of\n * @author Luis Videla\n */\ncontract Marketplace is Ownable, Pausable {\n    mapping(address => bool) public admins;\n    mapping(address => bool) public storeOwners;\n    mapping(address => Store[]) public stores;\n\n    /**\n     * Events\n     */\n    event AddedAdmin(address indexed addr);\n    event RemovedAdmin(address indexed addr);\n    event AddedStoreOwner(address indexed addr);\n    event RemovedStoreOwner(address indexed addr);\n    event AddedStore(address indexed owner, string name);\n    event DeletedStore(address indexed addr, address indexed owner);\n\n    /// @dev Throws if called by any account that isn't an admin\n    modifier onlyAdmin() {\n        require(admins[msg.sender] == true, \"You do not have permission to perform this action.\");\n        _;\n    }\n\n    /// @dev Throws if called by any account that isn't a store owner\n    modifier onlyStoreOwner() {\n        require(storeOwners[msg.sender] == true, \"You are not the owner of this store.\");\n        _;\n    }\n\n    /// @dev Throws if called by an account that isn't a store owner of a particular store\n    modifier validStoreOwner() {\n        bool exists = false;\n        Store[] memory storeList = stores[msg.sender];\n        for (uint i = 0; i < storeList.length; i++) {\n            if (storeList[i].owner() == msg.sender) {\n                exists = true;\n            }\n        }\n        require(exists, \"You are not the owner of this store.\");\n        _;\n    }\n\n    /// @dev The Marketplace constructor sets the sender as the owner of the contract\n    /// and is added to the list of admins\n    constructor() public {\n        transferOwnership(msg.sender);\n        admins[msg.sender] = true;\n    }\n\n    /**\n     * @dev Adds an address to the admin mapping\n     * @param _addr An address\n     */\n    function addAdmin(address _addr) public onlyAdmin whenNotPaused {\n        emit AddedAdmin(_addr);\n        admins[_addr] = true;\n    }\n\n    /**\n     * @dev Sets admin status in the mapping to false\n     * @param _addr An address\n     */\n    function removeAdmin(address _addr) public onlyOwner whenNotPaused {\n        require(_addr != owner(), \"You do not have permissions to remove an owner.\");\n        emit RemovedAdmin(_addr);\n        admins[_addr] = false;\n    }\n\n    /**\n     * @dev Adds an address to the store owner mapping\n     * @param _addr An address\n     */\n    function addStoreOwner(address _addr) public onlyAdmin whenNotPaused {\n        emit AddedStoreOwner(_addr);\n        storeOwners[_addr] = true;\n    }\n\n    /**\n     * @dev Sets admin status in the mapping to false\n     * @param _addr An address\n     */\n    function removeStoreOwner(address _addr) public onlyAdmin whenNotPaused {\n        emit RemovedStoreOwner(_addr);\n        storeOwners[_addr] = false;\n    }\n\n    /**\n     * @dev Gets the list of stores from the store mapping\n     * @param _addr An address\n     */\n    function getStores(address _addr) public view returns (Store[] memory) {\n        return stores[_addr];\n    }\n\n    /**\n     * @dev Gets the store values\n     * @param _store The contract address of a store\n     */\n    function getStoreValues(Store _store) public view returns (address, address, string memory, uint) {\n        return _store.getValues();\n    }\n\n    /**\n     * @dev Add a store\n     * @param _name The store's name\n     */\n    function addStore(string memory _name) public onlyStoreOwner whenNotPaused returns (Store storeAddress) {\n        emit AddedStore(msg.sender, _name);\n        Store store = new Store(msg.sender, address(this), _name);\n        Store[] memory existingStores = stores[msg.sender];\n        Store[] memory storeList = new Store[](existingStores.length + 1);\n\n        for (uint i = 0; i < existingStores.length; i++) {\n            storeList[i] = existingStores[i];\n        }\n\n        storeList[storeList.length - 1] = store;\n\n        stores[msg.sender] = storeList;\n        return store;\n    }\n\n    /**\n     * @dev Deletes a store\n     * @notice The actual deletion happens using an external call in the Store contract\n     * @param _addr The store's address\n     */\n    function deleteStore(address _addr) public validStoreOwner whenNotPaused {\n        emit DeletedStore(_addr, msg.sender);\n        Store[] memory existingStores = stores[msg.sender];\n        Store[] memory storeList = new Store[](existingStores.length - 1);\n        uint counter = 0;\n\n        for (uint i = 0; i < existingStores.length; i++) {\n            if (address(existingStores[i]) != _addr) {\n                storeList[counter] = existingStores[i];\n                counter++;\n            }\n        }\n\n        stores[msg.sender] = storeList;\n        Store(_addr).deleteStore();\n    }\n\n}\n",
  "sourcePath": "/Users/luisvidela/Development/blockchain/celocamp/TrademarkStore/contracts/Marketplace.sol",
  "compiler": {
    "name": "solc",
    "version": "0.5.0+commit.1d4f565a.Emscripten.clang"
  },
  "schemaVersion": "3.0.6",
  "updatedAt": "2020-04-06T05:13:19.132Z",
  "devdoc": {
    "author": "Luis Videla",
    "details": "The Marketplace contract determines which addresses are the admins and the store owners. It is also allows store owners to open a store using an external function from the Store contract. Using a store owners address it can determine the stores that the store owner is in charge of",
    "methods": {
      "addAdmin(address)": {
        "details": "Adds an address to the admin mapping",
        "params": {
          "_addr": "An address"
        }
      },
      "addStore(string)": {
        "details": "Add a store",
        "params": {
          "_name": "The store's name"
        }
      },
      "addStoreOwner(address)": {
        "details": "Adds an address to the store owner mapping",
        "params": {
          "_addr": "An address"
        }
      },
      "constructor": {
        "details": "The Marketplace constructor sets the sender as the owner of the contract and is added to the list of admins"
      },
      "deleteStore(address)": {
        "details": "Deletes a store",
        "params": {
          "_addr": "The store's address"
        }
      },
      "getStoreValues(address)": {
        "details": "Gets the store values",
        "params": {
          "_store": "The contract address of a store"
        }
      },
      "getStores(address)": {
        "details": "Gets the list of stores from the store mapping",
        "params": {
          "_addr": "An address"
        }
      },
      "isOwner()": {
        "details": "Returns true if the caller is the current owner."
      },
      "owner()": {
        "details": "Returns the address of the current owner."
      },
      "pause()": {
        "details": "Called by a pauser to pause, triggers stopped state."
      },
      "paused()": {
        "details": "Returns true if the contract is paused, and false otherwise."
      },
      "removeAdmin(address)": {
        "details": "Sets admin status in the mapping to false",
        "params": {
          "_addr": "An address"
        }
      },
      "removeStoreOwner(address)": {
        "details": "Sets admin status in the mapping to false",
        "params": {
          "_addr": "An address"
        }
      },
      "renounceOwnership()": {
        "details": "Leaves the contract without owner. It will not be possible to call `onlyOwner` functions anymore. Can only be called by the current owner.     * > Note: Renouncing ownership will leave the contract without an owner, thereby removing any functionality that is only available to the owner."
      },
      "transferOwnership(address)": {
        "details": "Transfers ownership of the contract to a new account (`newOwner`). Can only be called by the current owner."
      },
      "unpause()": {
        "details": "Called by a pauser to unpause, returns to normal state."
      }
    },
    "title": "Marketplace"
  },
  "userdoc": {
    "methods": {
      "deleteStore(address)": {
        "notice": "The actual deletion happens using an external call in the Store contract"
      }
    }
  }
}