{
  "contractName": "Store",
  "abi": [
    {
      "constant": true,
      "inputs": [],
      "name": "itemIterator",
      "outputs": [
        {
          "name": "",
          "type": "uint256"
        }
      ],
      "payable": false,
      "stateMutability": "view",
      "type": "function"
    },
    {
      "constant": true,
      "inputs": [],
      "name": "name",
      "outputs": [
        {
          "name": "",
          "type": "string"
        }
      ],
      "payable": false,
      "stateMutability": "view",
      "type": "function"
    },
    {
      "constant": false,
      "inputs": [],
      "name": "renounceOwnership",
      "outputs": [],
      "payable": false,
      "stateMutability": "nonpayable",
      "type": "function"
    },
    {
      "constant": true,
      "inputs": [],
      "name": "owner",
      "outputs": [
        {
          "name": "",
          "type": "address"
        }
      ],
      "payable": false,
      "stateMutability": "view",
      "type": "function"
    },
    {
      "constant": true,
      "inputs": [],
      "name": "isOwner",
      "outputs": [
        {
          "name": "",
          "type": "bool"
        }
      ],
      "payable": false,
      "stateMutability": "view",
      "type": "function"
    },
    {
      "constant": true,
      "inputs": [
        {
          "name": "",
          "type": "uint256"
        }
      ],
      "name": "items",
      "outputs": [
        {
          "name": "id",
          "type": "uint256"
        },
        {
          "name": "name",
          "type": "string"
        },
        {
          "name": "price",
          "type": "uint256"
        },
        {
          "name": "quantity",
          "type": "uint256"
        },
        {
          "name": "exists",
          "type": "bool"
        }
      ],
      "payable": false,
      "stateMutability": "view",
      "type": "function"
    },
    {
      "constant": false,
      "inputs": [
        {
          "name": "newOwner",
          "type": "address"
        }
      ],
      "name": "transferOwnership",
      "outputs": [],
      "payable": false,
      "stateMutability": "nonpayable",
      "type": "function"
    },
    {
      "inputs": [
        {
          "name": "_owner",
          "type": "address"
        },
        {
          "name": "_marketplaceAddr",
          "type": "address"
        },
        {
          "name": "_name",
          "type": "string"
        }
      ],
      "payable": false,
      "stateMutability": "nonpayable",
      "type": "constructor"
    },
    {
      "anonymous": false,
      "inputs": [
        {
          "indexed": true,
          "name": "id",
          "type": "uint256"
        },
        {
          "indexed": false,
          "name": "name",
          "type": "string"
        },
        {
          "indexed": false,
          "name": "price",
          "type": "uint256"
        },
        {
          "indexed": false,
          "name": "quantity",
          "type": "uint256"
        }
      ],
      "name": "AddedItem",
      "type": "event"
    },
    {
      "anonymous": false,
      "inputs": [
        {
          "indexed": true,
          "name": "id",
          "type": "uint256"
        }
      ],
      "name": "RemovedItem",
      "type": "event"
    },
    {
      "anonymous": false,
      "inputs": [
        {
          "indexed": true,
          "name": "id",
          "type": "uint256"
        },
        {
          "indexed": false,
          "name": "prevPrice",
          "type": "uint256"
        },
        {
          "indexed": false,
          "name": "price",
          "type": "uint256"
        }
      ],
      "name": "ChangedPrice",
      "type": "event"
    },
    {
      "anonymous": false,
      "inputs": [
        {
          "indexed": true,
          "name": "id",
          "type": "uint256"
        },
        {
          "indexed": true,
          "name": "buyer",
          "type": "address"
        },
        {
          "indexed": false,
          "name": "quantity",
          "type": "uint256"
        }
      ],
      "name": "BoughtItem",
      "type": "event"
    },
    {
      "anonymous": false,
      "inputs": [
        {
          "indexed": true,
          "name": "addr",
          "type": "address"
        },
        {
          "indexed": true,
          "name": "owner",
          "type": "address"
        }
      ],
      "name": "DeletedStore",
      "type": "event"
    },
    {
      "anonymous": false,
      "inputs": [
        {
          "indexed": true,
          "name": "addr",
          "type": "address"
        },
        {
          "indexed": false,
          "name": "amount",
          "type": "uint256"
        }
      ],
      "name": "WithdrewFunds",
      "type": "event"
    },
    {
      "anonymous": false,
      "inputs": [
        {
          "indexed": true,
          "name": "previousOwner",
          "type": "address"
        },
        {
          "indexed": true,
          "name": "newOwner",
          "type": "address"
        }
      ],
      "name": "OwnershipTransferred",
      "type": "event"
    },
    {
      "constant": true,
      "inputs": [],
      "name": "getValues",
      "outputs": [
        {
          "name": "",
          "type": "address"
        },
        {
          "name": "",
          "type": "address"
        },
        {
          "name": "",
          "type": "string"
        },
        {
          "name": "",
          "type": "uint256"
        }
      ],
      "payable": false,
      "stateMutability": "view",
      "type": "function"
    },
    {
      "constant": false,
      "inputs": [
        {
          "name": "_name",
          "type": "string"
        },
        {
          "name": "_price",
          "type": "uint256"
        },
        {
          "name": "_quantity",
          "type": "uint256"
        }
      ],
      "name": "addItem",
      "outputs": [],
      "payable": false,
      "stateMutability": "nonpayable",
      "type": "function"
    },
    {
      "constant": false,
      "inputs": [
        {
          "name": "_id",
          "type": "uint256"
        }
      ],
      "name": "removeItem",
      "outputs": [],
      "payable": false,
      "stateMutability": "nonpayable",
      "type": "function"
    },
    {
      "constant": false,
      "inputs": [
        {
          "name": "_id",
          "type": "uint256"
        },
        {
          "name": "_price",
          "type": "uint256"
        }
      ],
      "name": "changePrice",
      "outputs": [],
      "payable": false,
      "stateMutability": "nonpayable",
      "type": "function"
    },
    {
      "constant": false,
      "inputs": [
        {
          "name": "_id",
          "type": "uint256"
        },
        {
          "name": "_quantity",
          "type": "uint256"
        }
      ],
      "name": "buyItem",
      "outputs": [],
      "payable": true,
      "stateMutability": "payable",
      "type": "function"
    },
    {
      "constant": false,
      "inputs": [],
      "name": "deleteStore",
      "outputs": [],
      "payable": false,
      "stateMutability": "nonpayable",
      "type": "function"
    },
    {
      "constant": false,
      "inputs": [
        {
          "name": "_amount",
          "type": "uint256"
        }
      ],
      "name": "withdrawFunds",
      "outputs": [],
      "payable": false,
      "stateMutability": "nonpayable",
      "type": "function"
    }
  ],
  "bytecode": "0x60806040523480156200001157600080fd5b5060405162001c8638038062001c86833981018060405260608110156200003757600080fd5b81516020830151604084018051929491938201926401000000008111156200005e57600080fd5b820160208101848111156200007257600080fd5b81516401000000008111828201871017156200008d57600080fd5b505060008054600160a060020a0319163317808255604051929550600160a060020a03169350915060008051602062001c66833981519152908290a3620000dd836401000000006200011d810204565b60018054600160a060020a031916600160a060020a03841617905580516200010d906002906020840190620002af565b5050600060045550620003519050565b62000130640100000000620001b5810204565b15156200019e57604080517f08c379a000000000000000000000000000000000000000000000000000000000815260206004820181905260248201527f4f776e61626c653a2063616c6c6572206973206e6f7420746865206f776e6572604482015290519081900360640190fd5b620001b281640100000000620001c7810204565b50565b600054600160a060020a031633145b90565b600160a060020a03811615156200026557604080517f08c379a000000000000000000000000000000000000000000000000000000000815260206004820152602660248201527f4f776e61626c653a206e6577206f776e657220697320746865207a65726f206160448201527f6464726573730000000000000000000000000000000000000000000000000000606482015290519081900360840190fd5b60008054604051600160a060020a038085169392169160008051602062001c6683398151915291a360008054600160a060020a031916600160a060020a0392909216919091179055565b828054600181600116156101000203166002900490600052602060002090601f016020900481019282601f10620002f257805160ff191683800117855562000322565b8280016001018555821562000322579182015b828111156200032257825182559160200191906001019062000305565b506200033092915062000334565b5090565b620001c491905b808211156200033057600081556001016200033b565b61190580620003616000396000f3fe6080604052600436106100cf5763ffffffff7c010000000000000000000000000000000000000000000000000000000060003504166305930f7c81146100d457806306fdde03146100fb578063155dd5ee1461018557806319eb4a90146101b157806371329171146102ab578063715018a6146102d55780638da5cb5b146102ea5780638f32d59b146103285780639979c00914610351578063b3de019c14610374578063bfb231d2146103a4578063d5e6c33314610466578063f2fde38b1461051e578063f86fe8651461055e575b600080fd5b3480156100e057600080fd5b506100e9610573565b60408051918252519081900360200190f35b34801561010757600080fd5b50610110610579565b6040805160208082528351818301528351919283929083019185019080838360005b8381101561014a578181015183820152602001610132565b50505050905090810190601f1680156101775780820380516001836020036101000a031916815260200191505b509250505060405180910390f35b34801561019157600080fd5b506101af600480360360208110156101a857600080fd5b5035610604565b005b3480156101bd57600080fd5b506101c6610791565b604051808573ffffffffffffffffffffffffffffffffffffffff1673ffffffffffffffffffffffffffffffffffffffff1681526020018473ffffffffffffffffffffffffffffffffffffffff1673ffffffffffffffffffffffffffffffffffffffff16815260200180602001838152602001828103825284818151815260200191508051906020019080838360005b8381101561026d578181015183820152602001610255565b50505050905090810190601f16801561029a5780820380516001836020036101000a031916815260200191505b509550505050505060405180910390f35b3480156102b757600080fd5b506101af600480360360208110156102ce57600080fd5b503561085e565b3480156102e157600080fd5b506101af610a99565b3480156102f657600080fd5b506102ff610b60565b6040805173ffffffffffffffffffffffffffffffffffffffff9092168252519081900360200190f35b34801561033457600080fd5b5061033d610b7d565b604080519115158252519081900360200190f35b6101af6004803603604081101561036757600080fd5b5080359060200135610b9b565b34801561038057600080fd5b506101af6004803603604081101561039757600080fd5b5080359060200135610e3e565b3480156103b057600080fd5b506103ce600480360360208110156103c757600080fd5b5035611074565b604051808681526020018060200185815260200184815260200183151515158152602001828103825286818151815260200191508051906020019080838360005b8381101561042757818101518382015260200161040f565b50505050905090810190601f1680156104545780820380516001836020036101000a031916815260200191505b50965050505050505060405180910390f35b34801561047257600080fd5b506101af6004803603606081101561048957600080fd5b8101906020810181356401000000008111156104a457600080fd5b8201836020820111156104b657600080fd5b803590602001918460018302840111640100000000831117156104d857600080fd5b91908080601f0160208091040260200160405190810160405280939291908181526020018383808284376000920191909152509295505082359350505060200135611132565b34801561052a57600080fd5b506101af6004803603602081101561054157600080fd5b503573ffffffffffffffffffffffffffffffffffffffff166113d7565b34801561056a57600080fd5b506101af611446565b60045481565b6002805460408051602060018416156101000260001901909316849004601f810184900484028201840190925281815292918301828280156105fc5780601f106105d1576101008083540402835291602001916105fc565b820191906000526020600020905b8154815290600101906020018083116105df57829003601f168201915b505050505081565b61060c610b7d565b151561066757604080516000805160206118ba833981519152815260206004820181905260248201527f4f776e61626c653a2063616c6c6572206973206e6f7420746865206f776e6572604482015290519081900360640190fd5b30318111156106eb57604080516000805160206118ba833981519152815260206004820152602560248201527f596f7520646f6e2774206861766520796f75206861766520656e6f756768206560448201527f746865722e000000000000000000000000000000000000000000000000000000606482015290519081900360840190fd5b6106f3610b60565b73ffffffffffffffffffffffffffffffffffffffff167f4e047827ced31ce8022e0dd0c4129d64c12712fc49afc2d02facf3b2c4ae7f2d826040518082815260200191505060405180910390a2610748610b60565b73ffffffffffffffffffffffffffffffffffffffff166108fc829081150290604051600060405180830381858888f1935050505015801561078d573d6000803e3d6000fd5b5050565b600080606060006107a0610b60565b6001805460045460028054604080516020601f60001998851615610100029890980190931684900496870183900483028101830190915285815273ffffffffffffffffffffffffffffffffffffffff9094169491939184918301828280156108495780601f1061081e57610100808354040283529160200191610849565b820191906000526020600020905b81548152906001019060200180831161082c57829003601f168201915b50505050509150935093509350935090919293565b600081815260036020526040902060040154819060ff1615156001146108d357604080516000805160206118ba833981519152815260206004820152601160248201527f4e6f6e6578697374656e74206974656d2e000000000000000000000000000000604482015290519081900360640190fd5b6108db610b7d565b151561093657604080516000805160206118ba833981519152815260206004820181905260248201527f4f776e61626c653a2063616c6c6572206973206e6f7420746865206f776e6572604482015290519081900360640190fd5b600154604080517f5c975abb000000000000000000000000000000000000000000000000000000008152905173ffffffffffffffffffffffffffffffffffffffff909216916000918391635c975abb91600480820192602092909190829003018186803b1580156109a657600080fd5b505afa1580156109ba573d6000803e3d6000fd5b505050506040513d60208110156109d057600080fd5b505190508015610a2f57604080516000805160206118ba833981519152815260206004820152601960248201527f546865204d61726b6574706c6163652069732070617573656400000000000000604482015290519081900360640190fd5b60405184907f1200711b6f8b57257f9fe3aa66400323f3fdab4a308661e85a1cddb32aebfd6390600090a2600084815260036020526040812081815590610a7960018301826117dd565b506000600282018190556003820155600401805460ff1916905550505050565b610aa1610b7d565b1515610afc57604080516000805160206118ba833981519152815260206004820181905260248201527f4f776e61626c653a2063616c6c6572206973206e6f7420746865206f776e6572604482015290519081900360640190fd5b6000805460405173ffffffffffffffffffffffffffffffffffffffff909116907f8be0079c531659141344cd1fd0a4f28419497f9722a3daafe3b4186f6b6457e0908390a36000805473ffffffffffffffffffffffffffffffffffffffff19169055565b60005473ffffffffffffffffffffffffffffffffffffffff165b90565b60005473ffffffffffffffffffffffffffffffffffffffff16331490565b600082815260036020526040902060040154829060ff161515600114610c1057604080516000805160206118ba833981519152815260206004820152601160248201527f4e6f6e6578697374656e74206974656d2e000000000000000000000000000000604482015290519081900360640190fd5b600154604080517f5c975abb000000000000000000000000000000000000000000000000000000008152905173ffffffffffffffffffffffffffffffffffffffff909216916000918391635c975abb91600480820192602092909190829003018186803b158015610c8057600080fd5b505afa158015610c94573d6000803e3d6000fd5b505050506040513d6020811015610caa57600080fd5b505190508015610d0957604080516000805160206118ba833981519152815260206004820152601960248201527f546865204d61726b6574706c6163652069732070617573656400000000000000604482015290519081900360640190fd5b600085815260036020526040902060020154341015610d7757604080516000805160206118ba833981519152815260206004820152601160248201527f4e6f7420656e6f7567682065746865722e000000000000000000000000000000604482015290519081900360640190fd5b60008581526003602081905260409091200154841115610de657604080516000805160206118ba833981519152815260206004820152601a60248201527f576520646f6e27742068617665207468617420616d6f756e742e000000000000604482015290519081900360640190fd5b604080518581529051339187917ff7543ed05d8b08b4a46891affceaf63e67dcebf0fd6975f653857b6cd26a9f299181900360200190a350505060009182526003602081905260409092209091018054919091039055565b600082815260036020526040902060040154829060ff161515600114610eb357604080516000805160206118ba833981519152815260206004820152601160248201527f4e6f6e6578697374656e74206974656d2e000000000000000000000000000000604482015290519081900360640190fd5b610ebb610b7d565b1515610f1657604080516000805160206118ba833981519152815260206004820181905260248201527f4f776e61626c653a2063616c6c6572206973206e6f7420746865206f776e6572604482015290519081900360640190fd5b600154604080517f5c975abb000000000000000000000000000000000000000000000000000000008152905173ffffffffffffffffffffffffffffffffffffffff909216916000918391635c975abb91600480820192602092909190829003018186803b158015610f8657600080fd5b505afa158015610f9a573d6000803e3d6000fd5b505050506040513d6020811015610fb057600080fd5b50519050801561100f57604080516000805160206118ba833981519152815260206004820152601960248201527f546865204d61726b6574706c6163652069732070617573656400000000000000604482015290519081900360640190fd5b600085815260036020908152604091829020600201548251908152908101869052815187927fe7c8040b7e70fdc86a04cd924e84862b2a7d37a5adb67e951bf0defb90c74d00928290030190a250505060009182526003602052604090912060020155565b6003602090815260009182526040918290208054600180830180548651600293821615610100026000190190911692909204601f8101869004860283018601909652858252919492939092908301828280156111115780601f106110e657610100808354040283529160200191611111565b820191906000526020600020905b8154815290600101906020018083116110f457829003601f168201915b50505050600283015460038401546004909401549293909290915060ff1685565b61113a610b7d565b151561119557604080516000805160206118ba833981519152815260206004820181905260248201527f4f776e61626c653a2063616c6c6572206973206e6f7420746865206f776e6572604482015290519081900360640190fd5b600154604080517f5c975abb000000000000000000000000000000000000000000000000000000008152905173ffffffffffffffffffffffffffffffffffffffff909216916000918391635c975abb91600480820192602092909190829003018186803b15801561120557600080fd5b505afa158015611219573d6000803e3d6000fd5b505050506040513d602081101561122f57600080fd5b50519050801561128e57604080516000805160206118ba833981519152815260206004820152601960248201527f546865204d61726b6574706c6163652069732070617573656400000000000000604482015290519081900360640190fd5b6004547ffae8ae6da631b84dfad91e43b4bdb86a5dc01e169d10bfc9c9152d5ecad3748d8686866040518080602001848152602001838152602001828103825285818151815260200191508051906020019080838360005b838110156112fe5781810151838201526020016112e6565b50505050905090810190601f16801561132b5780820380516001836020036101000a031916815260200191505b5094505050505060405180910390a26040805160a08101825260045480825260208083018981528385018990526060840188905260016080850181905260009384526003835294909220835181559151805193949293611392938501929190910190611821565b5060408201516002820155606082015160038201556080909101516004918201805460ff1916911515919091179055546113cd90600161165a565b6004555050505050565b6113df610b7d565b151561143a57604080516000805160206118ba833981519152815260206004820181905260248201527f4f776e61626c653a2063616c6c6572206973206e6f7420746865206f776e6572604482015290519081900360640190fd5b611443816116c3565b50565b600154604080517f5c975abb000000000000000000000000000000000000000000000000000000008152905173ffffffffffffffffffffffffffffffffffffffff909216916000918391635c975abb91600480820192602092909190829003018186803b1580156114b657600080fd5b505afa1580156114ca573d6000803e3d6000fd5b505050506040513d60208110156114e057600080fd5b50519050801561153f57604080516000805160206118ba833981519152815260206004820152601960248201527f546865204d61726b6574706c6163652069732070617573656400000000000000604482015290519081900360640190fd5b60015473ffffffffffffffffffffffffffffffffffffffff1633146115d957604080516000805160206118ba833981519152815260206004820152603260248201527f596f7520646f206e6f742068617665207065726d697373696f6e20746f20706560448201527f72666f726d207468697320616374696f6e2e0000000000000000000000000000606482015290519081900360840190fd5b6115e1610b60565b73ffffffffffffffffffffffffffffffffffffffff163073ffffffffffffffffffffffffffffffffffffffff167fb669e70036eafd4a4f809731db5037795f95aa1d1a98bd25158949ff137e4f3360405160405180910390a3611642610b60565b73ffffffffffffffffffffffffffffffffffffffff16ff5b6000828201838110156116bc57604080516000805160206118ba833981519152815260206004820152601b60248201527f536166654d6174683a206164646974696f6e206f766572666c6f770000000000604482015290519081900360640190fd5b9392505050565b73ffffffffffffffffffffffffffffffffffffffff8116151561175b57604080516000805160206118ba833981519152815260206004820152602660248201527f4f776e61626c653a206e6577206f776e657220697320746865207a65726f206160448201527f6464726573730000000000000000000000000000000000000000000000000000606482015290519081900360840190fd5b6000805460405173ffffffffffffffffffffffffffffffffffffffff808516939216917f8be0079c531659141344cd1fd0a4f28419497f9722a3daafe3b4186f6b6457e091a36000805473ffffffffffffffffffffffffffffffffffffffff191673ffffffffffffffffffffffffffffffffffffffff92909216919091179055565b50805460018160011615610100020316600290046000825580601f106118035750611443565b601f016020900490600052602060002090810190611443919061189f565b828054600181600116156101000203166002900490600052602060002090601f016020900481019282601f1061186257805160ff191683800117855561188f565b8280016001018555821561188f579182015b8281111561188f578251825591602001919060010190611874565b5061189b92915061189f565b5090565b610b7a91905b8082111561189b57600081556001016118a556fe08c379a000000000000000000000000000000000000000000000000000000000a165627a7a72305820e5caa129ec1442a2793ff79cce566dd777c9bebe712f46a5d20001dece5224d300298be0079c531659141344cd1fd0a4f28419497f9722a3daafe3b4186f6b6457e0",
  "source": "pragma solidity ^0.5.0;\n\nimport \"@openzeppelin/contracts/ownership/Ownable.sol\";\nimport \"@openzeppelin/contracts/math/SafeMath.sol\";\n\nimport \"./Marketplace.sol\";\n\n/**\n * @title Store\n * @dev The Store contract contains the information and functions to manage the store.\n * @author Luis Videla\n */\ncontract Store is Ownable {\n\n    address marketplaceAddress;\n\n    string public name;\n\n    // item handling\n    mapping(uint => Item) public items;\n    uint public itemIterator;\n\n    /// @dev Item struct that contains the properties of an item\n    struct Item {\n        uint id;\n        string name;\n        uint price;\n        uint quantity;\n        bool exists;\n    }\n\n    /**\n     * Events\n     */\n    event AddedItem(uint indexed id, string name, uint price, uint quantity);\n    event RemovedItem(uint indexed id);\n    event ChangedPrice(uint indexed id, uint prevPrice, uint price);\n    event BoughtItem(uint indexed id, address indexed buyer, uint quantity);\n    event DeletedStore(address indexed addr, address indexed owner);\n    event WithdrewFunds(address indexed addr, uint amount);\n\n    /// @dev Throws is item does not exist\n    modifier itemExists(uint _id) {\n        require(items[_id].exists == true, \"Nonexistent item.\");\n        _;\n    }\n\n    /// @dev Throws if Marketplace contract is paused\n    modifier isNotPaused() {\n        Marketplace m = Marketplace(marketplaceAddress);\n        bool paused = m.paused();\n        require(paused == false, \"The Marketplace is paused\");\n        _;\n    }\n\n    /// @dev The Store contructor that sets up the properties for the opening of this store\n    constructor(address _owner, address _marketplaceAddr, string memory _name) public {\n        // owner = _owner;\n        transferOwnership (_owner);\n\n        marketplaceAddress = _marketplaceAddr;\n        name = _name;\n        itemIterator = 0;\n    }\n\n    /**\n     * @dev Gets the properties of the store\n     * @return owner The store owner's address\n     * @return marketplaceAddress The marketplace address (which was used to deploy this Store)\n     * @return name The store's name\n     * @return itemIterator The store's item count\n     */\n    function getValues() public view returns (address, address, string memory, uint) {\n        return (owner(), marketplaceAddress, name, itemIterator);\n    }\n\n    /**\n     * @dev Add an item to the store\n     * @param _name Name of the item\n     * @param _price Price of the item\n     * @param _quantity Quantity of the item\n     */\n    function addItem(string memory _name, uint _price, uint _quantity) public onlyOwner isNotPaused {\n        emit AddedItem(itemIterator, _name, _price, _quantity);\n        items[itemIterator] = Item(itemIterator, _name, _price, _quantity, true);\n        itemIterator = SafeMath.add(itemIterator, 1);\n    }\n\n    /**\n     * @dev Remove an item from the store\n     * @param _id The item's id\n      */\n    function removeItem(uint _id) public itemExists(_id) onlyOwner isNotPaused {\n        emit RemovedItem(_id);\n        delete items[_id];\n    }\n\n    /**\n     * @dev Change the price of an item from the store\n     * @param _id The item's id\n     * @param _price The item's new price in wei\n     */\n    function changePrice(uint _id, uint _price) public itemExists(_id) onlyOwner isNotPaused {\n        emit ChangedPrice(_id, items[_id].price, _price);\n        items[_id].price = _price;\n    }\n\n    /**\n     * @dev Buying an item from the store\n     * @param _id The item's id\n     * @param _quantity The quantity that the user wants to buy\n     */\n    function buyItem(uint _id, uint _quantity) public payable itemExists(_id) isNotPaused {\n        require(items[_id].price <= msg.value, \"Not enough ether.\");\n        require(items[_id].quantity >= _quantity, \"We don't have that amount.\");\n        emit BoughtItem(_id, msg.sender, _quantity);\n        items[_id].quantity = items[_id].quantity - _quantity;\n    }\n\n    /**\n     * @dev Delete the store\n     * @notice This is an external call, but will only accept calls made from the marketplace contract that created this\n     * store. The marketplace contract has checks in place to make sure no malicious store owners will delete a store\n     * that does not belong to them.\n     */\n    function deleteStore() external isNotPaused {\n        // Verify that call is made from the marketplace contract\n        require(msg.sender == marketplaceAddress, \"You do not have permission to perform this action.\");\n        emit DeletedStore(address(this), owner());\n        // cast to address(uint160) to make address payable\n        selfdestruct(address(uint160(owner())));\n    }\n\n    /**\n     * @dev Withdraw funds from the Store contract into the owner's address\n     * @param _amount The amount of funds to withdraw in wei\n     */\n    function withdrawFunds(uint _amount) public onlyOwner {\n        require(_amount <= address(this).balance, \"You don't have you have enough ether.\");\n        emit WithdrewFunds(owner(), _amount);\n        // cast to address(uint160) to make address payable\n        address(uint160(owner())).transfer(_amount);\n    }\n}\n",
  "sourcePath": "/Users/luisvidela/Development/blockchain/celocamp/TrademarkStore/contracts/Store.sol",
  "compiler": {
    "name": "solc",
    "version": "0.5.0+commit.1d4f565a.Emscripten.clang"
  },
  "schemaVersion": "3.0.6",
  "updatedAt": "2020-04-06T04:43:51.740Z",
  "devdoc": {
    "author": "Luis Videla",
    "details": "The Store contract contains the information and functions to manage the store.",
    "methods": {
      "addItem(string,uint256,uint256)": {
        "details": "Add an item to the store",
        "params": {
          "_name": "Name of the item",
          "_price": "Price of the item",
          "_quantity": "Quantity of the item"
        }
      },
      "buyItem(uint256,uint256)": {
        "details": "Buying an item from the store",
        "params": {
          "_id": "The item's id",
          "_quantity": "The quantity that the user wants to buy"
        }
      },
      "changePrice(uint256,uint256)": {
        "details": "Change the price of an item from the store",
        "params": {
          "_id": "The item's id",
          "_price": "The item's new price in wei"
        }
      },
      "constructor": {
        "details": "The Store contructor that sets up the properties for the opening of this store"
      },
      "deleteStore()": {
        "details": "Delete the store"
      },
      "getValues()": {
        "details": "Gets the properties of the store",
        "return": "owner The store owner's addressmarketplaceAddress The marketplace address (which was used to deploy this Store)name The store's nameitemIterator The store's item count"
      },
      "isOwner()": {
        "details": "Returns true if the caller is the current owner."
      },
      "owner()": {
        "details": "Returns the address of the current owner."
      },
      "removeItem(uint256)": {
        "details": "Remove an item from the store",
        "params": {
          "_id": "The item's id"
        }
      },
      "renounceOwnership()": {
        "details": "Leaves the contract without owner. It will not be possible to call `onlyOwner` functions anymore. Can only be called by the current owner.     * > Note: Renouncing ownership will leave the contract without an owner, thereby removing any functionality that is only available to the owner."
      },
      "transferOwnership(address)": {
        "details": "Transfers ownership of the contract to a new account (`newOwner`). Can only be called by the current owner."
      },
      "withdrawFunds(uint256)": {
        "details": "Withdraw funds from the Store contract into the owner's address",
        "params": {
          "_amount": "The amount of funds to withdraw in wei"
        }
      }
    },
    "title": "Store"
  },
  "userdoc": {
    "methods": {
      "deleteStore()": {
        "notice": "This is an external call, but will only accept calls made from the marketplace contract that created this store. The marketplace contract has checks in place to make sure no malicious store owners will delete a store that does not belong to them."
      }
    }
  }
}